{
  "contractName": "CourseMarketplace",
  "abi": [
    {
      "inputs": [],
      "stateMutability": "nonpayable",
      "type": "constructor"
    },
    {
      "inputs": [],
      "name": "CourseHasOwner",
      "type": "error"
    },
    {
      "inputs": [],
      "name": "CourseIsNotCreated",
      "type": "error"
    },
    {
      "inputs": [],
      "name": "InvalidState",
      "type": "error"
    },
    {
      "inputs": [],
      "name": "OnlyOwner",
      "type": "error"
    },
    {
      "inputs": [
        {
          "internalType": "bytes32",
          "name": "courseHash",
          "type": "bytes32"
        }
      ],
      "name": "activateCourse",
      "outputs": [],
      "stateMutability": "nonpayable",
      "type": "function"
    },
    {
      "inputs": [
        {
          "internalType": "bytes16",
          "name": "courseId",
          "type": "bytes16"
        },
        {
          "internalType": "bytes32",
          "name": "proof",
          "type": "bytes32"
        }
      ],
      "name": "purchaseCourse",
      "outputs": [],
      "stateMutability": "payable",
      "type": "function",
      "payable": true
    },
    {
      "inputs": [
        {
          "internalType": "address",
          "name": "newOwner",
          "type": "address"
        }
      ],
      "name": "transferOwnership",
      "outputs": [],
      "stateMutability": "nonpayable",
      "type": "function"
    },
    {
      "inputs": [],
      "name": "getCourseCount",
      "outputs": [
        {
          "internalType": "uint256",
          "name": "",
          "type": "uint256"
        }
      ],
      "stateMutability": "view",
      "type": "function",
      "constant": true
    },
    {
      "inputs": [
        {
          "internalType": "uint256",
          "name": "index",
          "type": "uint256"
        }
      ],
      "name": "getCourseHashAtIndex",
      "outputs": [
        {
          "internalType": "bytes32",
          "name": "",
          "type": "bytes32"
        }
      ],
      "stateMutability": "view",
      "type": "function",
      "constant": true
    },
    {
      "inputs": [
        {
          "internalType": "bytes32",
          "name": "courseHash",
          "type": "bytes32"
        }
      ],
      "name": "getCourseByHash",
      "outputs": [
        {
          "components": [
            {
              "internalType": "uint256",
              "name": "id",
              "type": "uint256"
            },
            {
              "internalType": "uint256",
              "name": "price",
              "type": "uint256"
            },
            {
              "internalType": "bytes32",
              "name": "proof",
              "type": "bytes32"
            },
            {
              "internalType": "address",
              "name": "owner",
              "type": "address"
            },
            {
              "internalType": "enum CourseMarketplace.State",
              "name": "state",
              "type": "uint8"
            }
          ],
          "internalType": "struct CourseMarketplace.Course",
          "name": "",
          "type": "tuple"
        }
      ],
      "stateMutability": "view",
      "type": "function",
      "constant": true
    },
    {
      "inputs": [],
      "name": "getContractOwner",
      "outputs": [
        {
          "internalType": "address",
          "name": "",
          "type": "address"
        }
      ],
      "stateMutability": "view",
      "type": "function",
      "constant": true
    }
  ],
  "bytecode": "0x608060405234801561001057600080fd5b506100203361002560201b60201c565b610069565b80600360006101000a81548173ffffffffffffffffffffffffffffffffffffffff021916908373ffffffffffffffffffffffffffffffffffffffff16021790555050565b610ec0806100786000396000f3fe6080604052600436106100705760003560e01c80636d11290b1161004e5780636d11290b1461010657806396cfda0614610143578063d76821cb1461016e578063f2fde38b1461018a57610070565b80633926257214610075578063442890d51461009e57806362e4e6ac146100c9575b600080fd5b34801561008157600080fd5b5061009c60048036038101906100979190610ab8565b6101b3565b005b3480156100aa57600080fd5b506100b3610484565b6040516100c09190610c35565b60405180910390f35b3480156100d557600080fd5b506100f060048036038101906100eb9190610ab8565b6104ae565b6040516100fd9190610c6b565b60405180910390f35b34801561011257600080fd5b5061012d60048036038101906101289190610ae1565b6105d5565b60405161013a9190610c50565b60405180910390f35b34801561014f57600080fd5b506101586105f2565b6040516101659190610c86565b60405180910390f35b61018860048036038101906101839190610a7c565b6105fc565b005b34801561019657600080fd5b506101b160048036038101906101ac9190610a53565b6107e8565b005b6101bb610484565b73ffffffffffffffffffffffffffffffffffffffff163373ffffffffffffffffffffffffffffffffffffffff161461021f576040517f5fc483c500000000000000000000000000000000000000000000000000000000815260040160405180910390fd5b61022881610860565b61025e576040517f4db0c48300000000000000000000000000000000000000000000000000000000815260040160405180910390fd5b60008060008381526020019081526020016000209050600060028111156102ae577f4e487b7100000000000000000000000000000000000000000000000000000000600052602160045260246000fd5b8160030160149054906101000a900460ff1660028111156102f8577f4e487b7100000000000000000000000000000000000000000000000000000000600052602160045260246000fd5b1461032f576040517fbaf3f0f700000000000000000000000000000000000000000000000000000000815260040160405180910390fd5b60018160030160146101000a81548160ff0219169083600281111561037d577f4e487b7100000000000000000000000000000000000000000000000000000000600052602160045260246000fd5b0217905550806000808481526020019081526020016000206000820154816000015560018201548160010155600282015481600201556003820160009054906101000a900473ffffffffffffffffffffffffffffffffffffffff168160030160006101000a81548173ffffffffffffffffffffffffffffffffffffffff021916908373ffffffffffffffffffffffffffffffffffffffff1602179055506003820160149054906101000a900460ff168160030160146101000a81548160ff02191690836002811115610478577f4e487b7100000000000000000000000000000000000000000000000000000000600052602160045260246000fd5b02179055509050505050565b6000600360009054906101000a900473ffffffffffffffffffffffffffffffffffffffff16905090565b6104b661097f565b6000808381526020019081526020016000206040518060a00160405290816000820154815260200160018201548152602001600282015481526020016003820160009054906101000a900473ffffffffffffffffffffffffffffffffffffffff1673ffffffffffffffffffffffffffffffffffffffff1673ffffffffffffffffffffffffffffffffffffffff1681526020016003820160149054906101000a900460ff166002811115610592577f4e487b7100000000000000000000000000000000000000000000000000000000600052602160045260246000fd5b60028111156105ca577f4e487b7100000000000000000000000000000000000000000000000000000000600052602160045260246000fd5b815250509050919050565b600060016000838152602001908152602001600020549050919050565b6000600254905090565b60008233604051602001610611929190610c09565b604051602081830303815290604052805190602001209050610632816108ce565b15610669576040517fb0fc2d9700000000000000000000000000000000000000000000000000000000815260040160405180910390fd5b60006002600081548092919061067e90610d38565b9190505590508160016000838152602001908152602001600020819055506040518060a001604052808281526020013481526020018481526020013373ffffffffffffffffffffffffffffffffffffffff1681526020016000600281111561070f577f4e487b7100000000000000000000000000000000000000000000000000000000600052602160045260246000fd5b81525060008084815260200190815260200160002060008201518160000155602082015181600101556040820151816002015560608201518160030160006101000a81548173ffffffffffffffffffffffffffffffffffffffff021916908373ffffffffffffffffffffffffffffffffffffffff16021790555060808201518160030160146101000a81548160ff021916908360028111156107da577f4e487b7100000000000000000000000000000000000000000000000000000000600052602160045260246000fd5b021790555090505050505050565b6107f0610484565b73ffffffffffffffffffffffffffffffffffffffff163373ffffffffffffffffffffffffffffffffffffffff1614610854576040517f5fc483c500000000000000000000000000000000000000000000000000000000815260040160405180910390fd5b61085d8161093b565b50565b60008073ffffffffffffffffffffffffffffffffffffffff1660008084815260200190815260200160002060030160009054906101000a900473ffffffffffffffffffffffffffffffffffffffff1673ffffffffffffffffffffffffffffffffffffffff1614159050919050565b60003373ffffffffffffffffffffffffffffffffffffffff1660008084815260200190815260200160002060030160009054906101000a900473ffffffffffffffffffffffffffffffffffffffff1673ffffffffffffffffffffffffffffffffffffffff16149050919050565b80600360006101000a81548173ffffffffffffffffffffffffffffffffffffffff021916908373ffffffffffffffffffffffffffffffffffffffff16021790555050565b6040518060a00160405280600081526020016000815260200160008019168152602001600073ffffffffffffffffffffffffffffffffffffffff168152602001600060028111156109f9577f4e487b7100000000000000000000000000000000000000000000000000000000600052602160045260246000fd5b81525090565b600081359050610a0e81610e2e565b92915050565b600081359050610a2381610e45565b92915050565b600081359050610a3881610e5c565b92915050565b600081359050610a4d81610e73565b92915050565b600060208284031215610a6557600080fd5b6000610a73848285016109ff565b91505092915050565b60008060408385031215610a8f57600080fd5b6000610a9d85828601610a14565b9250506020610aae85828601610a29565b9150509250929050565b600060208284031215610aca57600080fd5b6000610ad884828501610a29565b91505092915050565b600060208284031215610af357600080fd5b6000610b0184828501610a3e565b91505092915050565b610b1381610ca1565b82525050565b610b2281610ca1565b82525050565b610b39610b3482610ca1565b610d81565b82525050565b610b50610b4b82610cb3565b610d93565b82525050565b610b5f81610cdf565b82525050565b610b6e81610cdf565b82525050565b610b7d81610d26565b82525050565b60a082016000820151610b996000850182610beb565b506020820151610bac6020850182610beb565b506040820151610bbf6040850182610b56565b506060820151610bd26060850182610b0a565b506080820151610be56080850182610b74565b50505050565b610bf481610d1c565b82525050565b610c0381610d1c565b82525050565b6000610c158285610b3f565b601082019150610c258284610b28565b6014820191508190509392505050565b6000602082019050610c4a6000830184610b19565b92915050565b6000602082019050610c656000830184610b65565b92915050565b600060a082019050610c806000830184610b83565b92915050565b6000602082019050610c9b6000830184610bfa565b92915050565b6000610cac82610cfc565b9050919050565b60007fffffffffffffffffffffffffffffffff0000000000000000000000000000000082169050919050565b6000819050919050565b6000819050610cf782610e1a565b919050565b600073ffffffffffffffffffffffffffffffffffffffff82169050919050565b6000819050919050565b6000610d3182610ce9565b9050919050565b6000610d4382610d1c565b91507fffffffffffffffffffffffffffffffffffffffffffffffffffffffffffffffff821415610d7657610d75610daf565b5b600182019050919050565b6000610d8c82610d9d565b9050919050565b6000819050919050565b6000610da882610e0d565b9050919050565b7f4e487b7100000000000000000000000000000000000000000000000000000000600052601160045260246000fd5b7f4e487b7100000000000000000000000000000000000000000000000000000000600052602160045260246000fd5b60008160601b9050919050565b60038110610e2b57610e2a610dde565b5b50565b610e3781610ca1565b8114610e4257600080fd5b50565b610e4e81610cb3565b8114610e5957600080fd5b50565b610e6581610cdf565b8114610e7057600080fd5b50565b610e7c81610d1c565b8114610e8757600080fd5b5056fea264697066735822122055e864e4920024b35614a21ebd1334d7eb22b5bb38970c8042fd57a19c86b32264736f6c63430008040033",
  "immutableReferences": {},
  "source": "// SPDX-License-Identifier: MIT\r\npragma solidity >=0.4.22 <0.9.0;\r\n\r\ncontract CourseMarketplace {\r\n\r\n    enum State {\r\n        Purchased,\r\n        Activated,\r\n        Deactivated\r\n    }\r\n\r\n    struct Course {\r\n        uint id; // 32\r\n        uint price; // 32\r\n        bytes32 proof; // 32\r\n        address owner; // 20\r\n        State state; // 1\r\n    }\r\n\r\n    ///Course has invalid state!\r\n    error InvalidState();\r\n    ///Course is not created!\r\n    error CourseIsNotCreated();\r\n\r\n    // mapping of courseHash to Course data\r\n    mapping(bytes32 => Course) private ownedCourses;\r\n\r\n    // mapping of courseID to courseHash\r\n    mapping(uint => bytes32) private ownedCourseHash;\r\n\r\n    // number of all courses + id of the course\r\n    uint private totalOwnedCourses;\r\n\r\n    address payable private owner;\r\n\r\n    constructor() {\r\n        setContractOwner(msg.sender);\r\n    }\r\n\r\n    /// Course has already a Owner!\r\n    error CourseHasOwner();\r\n\r\n    /// Only owner has an access!\r\n    error OnlyOwner();\r\n\r\n    modifier onlyOwner() {\r\n        if (msg.sender != getContractOwner()) {\r\n            revert OnlyOwner();\r\n        }\r\n        _;\r\n    }\r\n\r\n    function activateCourse(bytes32 courseHash) external onlyOwner {\r\n        if(!isCourseCreated(courseHash)) {\r\n            revert CourseIsNotCreated();\r\n        }\r\n        Course storage course = ownedCourses[courseHash];\r\n\r\n        if(course.state != State.Purchased) {\r\n            revert InvalidState();\r\n        }\r\n\r\n        course.state = State.Activated;\r\n        ownedCourses[courseHash] = course;\r\n    }\r\n\r\n    function purchaseCourse(\r\n        bytes16 courseId, // 0x00000000000000000000000000003130\r\n        bytes32 proof // 0x0000000000000000000000000000313000000000000000000000000000003130\r\n    )\r\n    external\r\n    payable\r\n    {\r\n        bytes32 courseHash = keccak256(abi.encodePacked(courseId, msg.sender));\r\n\r\n        if (hasCourseOwnership(courseHash)) {\r\n            revert CourseHasOwner();\r\n        }\r\n\r\n        uint id = totalOwnedCourses++;\r\n\r\n        ownedCourseHash[id] = courseHash;\r\n        ownedCourses[courseHash] = Course({\r\n        id: id,\r\n        price: msg.value,\r\n        proof: proof,\r\n        owner: msg.sender,\r\n        state: State.Purchased\r\n        });\r\n    }\r\n\r\n    function transferOwnership(address newOwner)\r\n    external\r\n    onlyOwner\r\n    {\r\n        setContractOwner(newOwner);\r\n    }\r\n\r\n    function getCourseCount()\r\n    external\r\n    view\r\n    returns (uint)\r\n    {\r\n        return totalOwnedCourses;\r\n    }\r\n\r\n    function getCourseHashAtIndex(uint index)\r\n    external\r\n    view\r\n    returns (bytes32)\r\n    {\r\n        return ownedCourseHash[index];\r\n    }\r\n\r\n    function getCourseByHash(bytes32 courseHash)\r\n    external\r\n    view\r\n    returns (Course memory)\r\n    {\r\n        return ownedCourses[courseHash];\r\n    }\r\n\r\n    function getContractOwner()\r\n    public\r\n    view\r\n    returns (address)\r\n    {\r\n        return owner;\r\n    }\r\n\r\n    function setContractOwner(address newOwner) private {\r\n        owner = payable(newOwner);\r\n    }\r\n\r\n    function hasCourseOwnership(bytes32 courseHash)\r\n    private\r\n    view\r\n    returns (bool)\r\n    {\r\n        return ownedCourses[courseHash].owner == msg.sender;\r\n    }\r\n\r\n    function isCourseCreated(bytes32 courseHash) private view returns(bool) {\r\n        return ownedCourses[courseHash].owner != 0x0000000000000000000000000000000000000000;\r\n    }\r\n}\r\n",
  "sourcePath": "C:\\Users\\Sergey\\Desktop\\blockchain\\marketplace-eth\\contracts\\Coursemarketplace.sol",
  "compiler": {
    "name": "solc",
    "version": "0.8.4+commit.c7e474f2.Emscripten.clang"
  },
  "schemaVersion": "3.4.7",
  "updatedAt": "2022-05-03T15:25:10.859Z",
  "networkType": "ethereum",
  "devdoc": {
    "kind": "dev",
    "methods": {},
    "version": 1
  },
  "userdoc": {
    "errors": {
      "CourseHasOwner()": [
        {
          "notice": "Course has already a Owner!"
        }
      ],
      "CourseIsNotCreated()": [
        {
          "notice": "Course is not created!"
        }
      ],
      "InvalidState()": [
        {
          "notice": "Course has invalid state!"
        }
      ],
      "OnlyOwner()": [
        {
          "notice": "Only owner has an access!"
        }
      ]
    },
    "kind": "user",
    "methods": {},
    "version": 1
  }
}